{
  "_format": "hh-sol-artifact-1",
  "contractName": "MyEpicNFT",
  "sourceName": "contracts/MyEpicNFT.sol",
  "abi": [
    {
      "inputs": [],
      "stateMutability": "nonpayable",
      "type": "constructor"
    },
    {
      "anonymous": false,
      "inputs": [
        {
          "indexed": true,
          "internalType": "address",
          "name": "owner",
          "type": "address"
        },
        {
          "indexed": true,
          "internalType": "address",
          "name": "approved",
          "type": "address"
        },
        {
          "indexed": true,
          "internalType": "uint256",
          "name": "tokenId",
          "type": "uint256"
        }
      ],
      "name": "Approval",
      "type": "event"
    },
    {
      "anonymous": false,
      "inputs": [
        {
          "indexed": true,
          "internalType": "address",
          "name": "owner",
          "type": "address"
        },
        {
          "indexed": true,
          "internalType": "address",
          "name": "operator",
          "type": "address"
        },
        {
          "indexed": false,
          "internalType": "bool",
          "name": "approved",
          "type": "bool"
        }
      ],
      "name": "ApprovalForAll",
      "type": "event"
    },
    {
      "anonymous": false,
      "inputs": [
        {
          "indexed": false,
          "internalType": "uint256",
          "name": "tokenId",
          "type": "uint256"
        }
      ],
      "name": "CurrentTokenId",
      "type": "event"
    },
    {
      "anonymous": false,
      "inputs": [
        {
          "indexed": false,
          "internalType": "address",
          "name": "sender",
          "type": "address"
        },
        {
          "indexed": false,
          "internalType": "uint256",
          "name": "tokenId",
          "type": "uint256"
        }
      ],
      "name": "NewEpicNFTMinted",
      "type": "event"
    },
    {
      "anonymous": false,
      "inputs": [
        {
          "indexed": true,
          "internalType": "address",
          "name": "from",
          "type": "address"
        },
        {
          "indexed": true,
          "internalType": "address",
          "name": "to",
          "type": "address"
        },
        {
          "indexed": true,
          "internalType": "uint256",
          "name": "tokenId",
          "type": "uint256"
        }
      ],
      "name": "Transfer",
      "type": "event"
    },
    {
      "inputs": [],
      "name": "GetTotalNFTsMintedSoFar",
      "outputs": [
        {
          "internalType": "uint256",
          "name": "",
          "type": "uint256"
        }
      ],
      "stateMutability": "view",
      "type": "function"
    },
    {
      "inputs": [
        {
          "internalType": "address",
          "name": "to",
          "type": "address"
        },
        {
          "internalType": "uint256",
          "name": "tokenId",
          "type": "uint256"
        }
      ],
      "name": "approve",
      "outputs": [],
      "stateMutability": "nonpayable",
      "type": "function"
    },
    {
      "inputs": [
        {
          "internalType": "address",
          "name": "owner",
          "type": "address"
        }
      ],
      "name": "balanceOf",
      "outputs": [
        {
          "internalType": "uint256",
          "name": "",
          "type": "uint256"
        }
      ],
      "stateMutability": "view",
      "type": "function"
    },
    {
      "inputs": [
        {
          "internalType": "uint256",
          "name": "tokenId",
          "type": "uint256"
        }
      ],
      "name": "getApproved",
      "outputs": [
        {
          "internalType": "address",
          "name": "",
          "type": "address"
        }
      ],
      "stateMutability": "view",
      "type": "function"
    },
    {
      "inputs": [
        {
          "internalType": "address",
          "name": "owner",
          "type": "address"
        },
        {
          "internalType": "address",
          "name": "operator",
          "type": "address"
        }
      ],
      "name": "isApprovedForAll",
      "outputs": [
        {
          "internalType": "bool",
          "name": "",
          "type": "bool"
        }
      ],
      "stateMutability": "view",
      "type": "function"
    },
    {
      "inputs": [],
      "name": "makeAnEpicNFT",
      "outputs": [],
      "stateMutability": "nonpayable",
      "type": "function"
    },
    {
      "inputs": [],
      "name": "name",
      "outputs": [
        {
          "internalType": "string",
          "name": "",
          "type": "string"
        }
      ],
      "stateMutability": "view",
      "type": "function"
    },
    {
      "inputs": [
        {
          "internalType": "uint256",
          "name": "tokenId",
          "type": "uint256"
        }
      ],
      "name": "ownerOf",
      "outputs": [
        {
          "internalType": "address",
          "name": "",
          "type": "address"
        }
      ],
      "stateMutability": "view",
      "type": "function"
    },
    {
      "inputs": [
        {
          "internalType": "uint256",
          "name": "tokenId",
          "type": "uint256"
        }
      ],
      "name": "pickRandomColor",
      "outputs": [
        {
          "internalType": "string",
          "name": "",
          "type": "string"
        }
      ],
      "stateMutability": "view",
      "type": "function"
    },
    {
      "inputs": [
        {
          "internalType": "uint256",
          "name": "tokenId",
          "type": "uint256"
        }
      ],
      "name": "pickRandomFirstWord",
      "outputs": [
        {
          "internalType": "string",
          "name": "",
          "type": "string"
        }
      ],
      "stateMutability": "view",
      "type": "function"
    },
    {
      "inputs": [
        {
          "internalType": "uint256",
          "name": "tokenId",
          "type": "uint256"
        }
      ],
      "name": "pickRandomSecondWord",
      "outputs": [
        {
          "internalType": "string",
          "name": "",
          "type": "string"
        }
      ],
      "stateMutability": "view",
      "type": "function"
    },
    {
      "inputs": [
        {
          "internalType": "uint256",
          "name": "tokenId",
          "type": "uint256"
        }
      ],
      "name": "pickRandomThirdWord",
      "outputs": [
        {
          "internalType": "string",
          "name": "",
          "type": "string"
        }
      ],
      "stateMutability": "view",
      "type": "function"
    },
    {
      "inputs": [
        {
          "internalType": "address",
          "name": "from",
          "type": "address"
        },
        {
          "internalType": "address",
          "name": "to",
          "type": "address"
        },
        {
          "internalType": "uint256",
          "name": "tokenId",
          "type": "uint256"
        }
      ],
      "name": "safeTransferFrom",
      "outputs": [],
      "stateMutability": "nonpayable",
      "type": "function"
    },
    {
      "inputs": [
        {
          "internalType": "address",
          "name": "from",
          "type": "address"
        },
        {
          "internalType": "address",
          "name": "to",
          "type": "address"
        },
        {
          "internalType": "uint256",
          "name": "tokenId",
          "type": "uint256"
        },
        {
          "internalType": "bytes",
          "name": "_data",
          "type": "bytes"
        }
      ],
      "name": "safeTransferFrom",
      "outputs": [],
      "stateMutability": "nonpayable",
      "type": "function"
    },
    {
      "inputs": [
        {
          "internalType": "address",
          "name": "operator",
          "type": "address"
        },
        {
          "internalType": "bool",
          "name": "approved",
          "type": "bool"
        }
      ],
      "name": "setApprovalForAll",
      "outputs": [],
      "stateMutability": "nonpayable",
      "type": "function"
    },
    {
      "inputs": [
        {
          "internalType": "bytes4",
          "name": "interfaceId",
          "type": "bytes4"
        }
      ],
      "name": "supportsInterface",
      "outputs": [
        {
          "internalType": "bool",
          "name": "",
          "type": "bool"
        }
      ],
      "stateMutability": "view",
      "type": "function"
    },
    {
      "inputs": [],
      "name": "symbol",
      "outputs": [
        {
          "internalType": "string",
          "name": "",
          "type": "string"
        }
      ],
      "stateMutability": "view",
      "type": "function"
    },
    {
      "inputs": [
        {
          "internalType": "uint256",
          "name": "tokenId",
          "type": "uint256"
        }
      ],
      "name": "tokenURI",
      "outputs": [
        {
          "internalType": "string",
          "name": "",
          "type": "string"
        }
      ],
      "stateMutability": "view",
      "type": "function"
    },
    {
      "inputs": [
        {
          "internalType": "address",
          "name": "from",
          "type": "address"
        },
        {
          "internalType": "address",
          "name": "to",
          "type": "address"
        },
        {
          "internalType": "uint256",
          "name": "tokenId",
          "type": "uint256"
        }
      ],
      "name": "transferFrom",
      "outputs": [],
      "stateMutability": "nonpayable",
      "type": "function"
    }
  ],
  "bytecode": "0x60806040526200001b6007620007cd60201b620012a71760201c565b60085560405180610100016040528060d381526020016200483260d3913960099080519060200190620000509291906200094a565b506040518060800160405280605681526020016200490560569139600a9080519060200190620000829291906200094a565b506040518060c001604052806040518060400160405280600381526020017f546f70000000000000000000000000000000000000000000000000000000000081525081526020016040518060400160405280600481526020017f426573740000000000000000000000000000000000000000000000000000000081525081526020016040518060400160405280600781526020017f556e6b6e6f776e0000000000000000000000000000000000000000000000000081525081526020016040518060400160405280600381526020017f4e6577000000000000000000000000000000000000000000000000000000000081525081526020016040518060400160405280600481526020017f4c6173740000000000000000000000000000000000000000000000000000000081525081526020016040518060400160405280600581526020017f4669727374000000000000000000000000000000000000000000000000000000815250815250600b90600662000200929190620009db565b506040518060c001604052806040518060400160405280600781526020017f536f6c646965720000000000000000000000000000000000000000000000000081525081526020016040518060400160405280600481526020017f426f6f6b0000000000000000000000000000000000000000000000000000000081525081526020016040518060400160405280600481526020017f4b696e670000000000000000000000000000000000000000000000000000000081525081526020016040518060400160405280600581526020017f517565656e00000000000000000000000000000000000000000000000000000081525081526020016040518060400160405280600381526020017f446f67000000000000000000000000000000000000000000000000000000000081525081526020016040518060400160405280600681526020017f5261626269740000000000000000000000000000000000000000000000000000815250815250600c9060066200037e929190620009db565b506040518060c001604052806040518060400160405280600481526020017f457069630000000000000000000000000000000000000000000000000000000081525081526020016040518060400160405280600781526020017f417765736f6d650000000000000000000000000000000000000000000000000081525081526020016040518060400160405280600781526020017f416d617a696e670000000000000000000000000000000000000000000000000081525081526020016040518060400160405280600a81526020017f566963746f72696f75730000000000000000000000000000000000000000000081525081526020016040518060400160405280600881526020017f4368616d70696f6e00000000000000000000000000000000000000000000000081525081526020016040518060400160405280600881526020017f5468652042657374000000000000000000000000000000000000000000000000815250815250600d906006620004fc929190620009db565b506040518060c001604052806040518060400160405280600381526020017f726564000000000000000000000000000000000000000000000000000000000081525081526020016040518060400160405280600781526020017f233038433241380000000000000000000000000000000000000000000000000081525081526020016040518060400160405280600581526020017f626c61636b00000000000000000000000000000000000000000000000000000081525081526020016040518060400160405280600681526020017f79656c6c6f77000000000000000000000000000000000000000000000000000081525081526020016040518060400160405280600481526020017f626c75650000000000000000000000000000000000000000000000000000000081525081526020016040518060400160405280600581526020017f677265656e000000000000000000000000000000000000000000000000000000815250815250600e9060066200067a929190620009db565b503480156200068857600080fd5b506040518060400160405280600981526020017f5371756172654e465400000000000000000000000000000000000000000000008152506040518060400160405280600681526020017f535155415245000000000000000000000000000000000000000000000000000081525081600090805190602001906200070d9291906200094a565b508060019080519060200190620007269291906200094a565b505050620007746040518060400160405280601e81526020017f54686973206973206d79204e465420636f6e74726163742e20576f6168210000815250620007db60201b620012b51760201c565b6200078c6008546200087e60201b6200134e1760201c565b7fa5c00b4404a298ed11ecf24b4631b479cfabafa02cc54cfecdeef959fcbc2c99600854604051620007bf919062000b45565b60405180910390a162000c34565b600081600001549050919050565b6200087b81604051602401620007f2919062000b21565b6040516020818303038152906040527f41304fac000000000000000000000000000000000000000000000000000000007bffffffffffffffffffffffffffffffffffffffffffffffffffffffff19166020820180517bffffffffffffffffffffffffffffffffffffffffffffffffffffffff83818316178352505050506200092160201b60201c565b50565b6200091e8160405160240162000895919062000b45565b6040516020818303038152906040527ff5b1bba9000000000000000000000000000000000000000000000000000000007bffffffffffffffffffffffffffffffffffffffffffffffffffffffff19166020820180517bffffffffffffffffffffffffffffffffffffffffffffffffffffffff83818316178352505050506200092160201b60201c565b50565b60008151905060006a636f6e736f6c652e6c6f679050602083016000808483855afa5050505050565b828054620009589062000bbe565b90600052602060002090601f0160209004810192826200097c5760008555620009c8565b82601f106200099757805160ff1916838001178555620009c8565b82800160010185558215620009c8579182015b82811115620009c7578251825591602001919060010190620009aa565b5b509050620009d7919062000a42565b5090565b82805482825590600052602060002090810192821562000a2f579160200282015b8281111562000a2e57825182908051906020019062000a1d9291906200094a565b5091602001919060010190620009fc565b5b50905062000a3e919062000a61565b5090565b5b8082111562000a5d57600081600090555060010162000a43565b5090565b5b8082111562000a85576000818162000a7b919062000a89565b5060010162000a62565b5090565b50805462000a979062000bbe565b6000825580601f1062000aab575062000acc565b601f01602090049060005260206000209081019062000acb919062000a42565b5b50565b600062000adc8262000b62565b62000ae8818562000b6d565b935062000afa81856020860162000b88565b62000b058162000c23565b840191505092915050565b62000b1b8162000b7e565b82525050565b6000602082019050818103600083015262000b3d818462000acf565b905092915050565b600060208201905062000b5c600083018462000b10565b92915050565b600081519050919050565b600082825260208201905092915050565b6000819050919050565b60005b8381101562000ba857808201518184015260208101905062000b8b565b8381111562000bb8576000848401525b50505050565b6000600282049050600182168062000bd757607f821691505b6020821081141562000bee5762000bed62000bf4565b5b50919050565b7f4e487b7100000000000000000000000000000000000000000000000000000000600052602260045260246000fd5b6000601f19601f8301169050919050565b613bee8062000c446000396000f3fe608060405234801561001057600080fd5b50600436106101215760003560e01c806370a08231116100ad578063b88d4fde11610071578063b88d4fde14610340578063c575757a1461035c578063c87b56dd1461038c578063de9d132f146103bc578063e985e9c5146103c657610121565b806370a082311461028857806395d89b41146102b8578063966d7ec2146102d6578063a22cb465146102f4578063b187301f1461031057610121565b806323b872dd116100f457806323b872dd146101c05780632de38d68146101dc57806342842e0e1461020c578063514dc8c6146102285780636352211e1461025857610121565b806301ffc9a71461012657806306fdde0314610156578063081812fc14610174578063095ea7b3146101a4575b600080fd5b610140600480360381019061013b9190612740565b6103f6565b60405161014d9190613444565b60405180910390f35b61015e6104d8565b60405161016b919061345f565b60405180910390f35b61018e60048036038101906101899190612792565b61056a565b60405161019b91906133b4565b60405180910390f35b6101be60048036038101906101b99190612704565b6105ef565b005b6101da60048036038101906101d591906125fe565b610707565b005b6101f660048036038101906101f19190612792565b610767565b604051610203919061345f565b60405180910390f35b610226600480360381019061022191906125fe565b610885565b005b610242600480360381019061023d9190612792565b6108a5565b60405161024f919061345f565b60405180910390f35b610272600480360381019061026d9190612792565b6109c3565b60405161027f91906133b4565b60405180910390f35b6102a2600480360381019061029d9190612599565b610a75565b6040516102af91906136df565b60405180910390f35b6102c0610b2d565b6040516102cd919061345f565b60405180910390f35b6102de610bbf565b6040516102eb91906136df565b60405180910390f35b61030e600480360381019061030991906126c8565b610bd0565b005b61032a60048036038101906103259190612792565b610be6565b604051610337919061345f565b60405180910390f35b61035a6004803603810190610355919061264d565b610d04565b005b61037660048036038101906103719190612792565b610d66565b604051610383919061345f565b60405180910390f35b6103a660048036038101906103a19190612792565b610e84565b6040516103b3919061345f565b60405180910390f35b6103c4610fd6565b005b6103e060048036038101906103db91906125c2565b611213565b6040516103ed9190613444565b60405180910390f35b60007f80ac58cd000000000000000000000000000000000000000000000000000000007bffffffffffffffffffffffffffffffffffffffffffffffffffffffff1916827bffffffffffffffffffffffffffffffffffffffffffffffffffffffff191614806104c157507f5b5e139f000000000000000000000000000000000000000000000000000000007bffffffffffffffffffffffffffffffffffffffffffffffffffffffff1916827bffffffffffffffffffffffffffffffffffffffffffffffffffffffff1916145b806104d157506104d0826113e7565b5b9050919050565b6060600080546104e79061397e565b80601f01602080910402602001604051908101604052809291908181526020018280546105139061397e565b80156105605780601f1061053557610100808354040283529160200191610560565b820191906000526020600020905b81548152906001019060200180831161054357829003601f168201915b5050505050905090565b600061057582611451565b6105b4576040517f08c379a00000000000000000000000000000000000000000000000000000000081526004016105ab9061363f565b60405180910390fd5b6004600083815260200190815260200160002060009054906101000a900473ffffffffffffffffffffffffffffffffffffffff169050919050565b60006105fa826109c3565b90508073ffffffffffffffffffffffffffffffffffffffff168373ffffffffffffffffffffffffffffffffffffffff16141561066b576040517f08c379a00000000000000000000000000000000000000000000000000000000081526004016106629061369f565b60405180910390fd5b8073ffffffffffffffffffffffffffffffffffffffff1661068a6114bd565b73ffffffffffffffffffffffffffffffffffffffff1614806106b957506106b8816106b36114bd565b611213565b5b6106f8576040517f08c379a00000000000000000000000000000000000000000000000000000000081526004016106ef9061355f565b60405180910390fd5b61070283836114c5565b505050565b6107186107126114bd565b8261157e565b610757576040517f08c379a000000000000000000000000000000000000000000000000000000000815260040161074e906136bf565b60405180910390fd5b61076283838361165c565b505050565b6060600061079b610777846118b8565b604051602001610787919061334e565b604051602081830303815290604052611a65565b9050600b80549050816107ae91906139f9565b9050600b81815481106107ea577f4e487b7100000000000000000000000000000000000000000000000000000000600052603260045260246000fd5b9060005260206000200180546107ff9061397e565b80601f016020809104026020016040519081016040528092919081815260200182805461082b9061397e565b80156108785780601f1061084d57610100808354040283529160200191610878565b820191906000526020600020905b81548152906001019060200180831161085b57829003601f168201915b5050505050915050919050565b6108a083838360405180602001604052806000815250610d04565b505050565b606060006108d96108b5846118b8565b6040516020016108c59190613392565b604051602081830303815290604052611a65565b9050600e80549050816108ec91906139f9565b9050600e8181548110610928577f4e487b7100000000000000000000000000000000000000000000000000000000600052603260045260246000fd5b90600052602060002001805461093d9061397e565b80601f01602080910402602001604051908101604052809291908181526020018280546109699061397e565b80156109b65780601f1061098b576101008083540402835291602001916109b6565b820191906000526020600020905b81548152906001019060200180831161099957829003601f168201915b5050505050915050919050565b6000806002600084815260200190815260200160002060009054906101000a900473ffffffffffffffffffffffffffffffffffffffff169050600073ffffffffffffffffffffffffffffffffffffffff168173ffffffffffffffffffffffffffffffffffffffff161415610a6c576040517f08c379a0000000000000000000000000000000000000000000000000000000008152600401610a639061359f565b60405180910390fd5b80915050919050565b60008073ffffffffffffffffffffffffffffffffffffffff168273ffffffffffffffffffffffffffffffffffffffff161415610ae6576040517f08c379a0000000000000000000000000000000000000000000000000000000008152600401610add9061357f565b60405180910390fd5b600360008373ffffffffffffffffffffffffffffffffffffffff1673ffffffffffffffffffffffffffffffffffffffff168152602001908152602001600020549050919050565b606060018054610b3c9061397e565b80601f0160208091040260200160405190810160405280929190818152602001828054610b689061397e565b8015610bb55780601f10610b8a57610100808354040283529160200191610bb5565b820191906000526020600020905b815481529060010190602001808311610b9857829003601f168201915b5050505050905090565b6000610bcb60076112a7565b905090565b610be2610bdb6114bd565b8383611a98565b5050565b60606000610c1a610bf6846118b8565b604051602001610c0691906132e7565b604051602081830303815290604052611a65565b9050600c8054905081610c2d91906139f9565b9050600c8181548110610c69577f4e487b7100000000000000000000000000000000000000000000000000000000600052603260045260246000fd5b906000526020600020018054610c7e9061397e565b80601f0160208091040260200160405190810160405280929190818152602001828054610caa9061397e565b8015610cf75780601f10610ccc57610100808354040283529160200191610cf7565b820191906000526020600020905b815481529060010190602001808311610cda57829003601f168201915b5050505050915050919050565b610d15610d0f6114bd565b8361157e565b610d54576040517f08c379a0000000000000000000000000000000000000000000000000000000008152600401610d4b906136bf565b60405180910390fd5b610d6084848484611c05565b50505050565b60606000610d9a610d76846118b8565b604051602001610d8691906132c5565b604051602081830303815290604052611a65565b9050600d8054905081610dad91906139f9565b9050600d8181548110610de9577f4e487b7100000000000000000000000000000000000000000000000000000000600052603260045260246000fd5b906000526020600020018054610dfe9061397e565b80601f0160208091040260200160405190810160405280929190818152602001828054610e2a9061397e565b8015610e775780601f10610e4c57610100808354040283529160200191610e77565b820191906000526020600020905b815481529060010190602001808311610e5a57829003601f168201915b5050505050915050919050565b6060610e8f82611451565b610ece576040517f08c379a0000000000000000000000000000000000000000000000000000000008152600401610ec5906135ff565b60405180910390fd5b6000600660008481526020019081526020016000208054610eee9061397e565b80601f0160208091040260200160405190810160405280929190818152602001828054610f1a9061397e565b8015610f675780601f10610f3c57610100808354040283529160200191610f67565b820191906000526020600020905b815481529060010190602001808311610f4a57829003601f168201915b505050505090506000610f78611c61565b9050600081511415610f8e578192505050610fd1565b600082511115610fc3578082604051602001610fab929190613227565b60405160208183030381529060405292505050610fd1565b610fcc84611c78565b925050505b919050565b6000610fe260076112a7565b905060328110611027576040517f08c379a000000000000000000000000000000000000000000000000000000000815260040161101e9061361f565b60405180910390fd5b600061103282610767565b9050600061103f83610be6565b9050600061104c84610d66565b905060008383836040516020016110659392919061324b565b60405160208183030381529060405290506000611081866108a5565b90506000600982600a8560405160200161109e949392919061327c565b604051602081830303815290604052905060006110e3846110be84611d1f565b6040516020016110cf929190613309565b604051602081830303815290604052611d1f565b90506000816040516020016110f89190613370565b60405160208183030381529060405290506111476040518060400160405280601581526020017f0a2d2d2d2d2d2d2d2d2d2d2d2d2d2d2d2d2d2d2d2d00000000000000000000008152506112b5565b611150816112b5565b61118e6040518060400160405280601581526020017f2d2d2d2d2d2d2d2d2d2d2d2d2d2d2d2d2d2d2d2d0a00000000000000000000008152506112b5565b611198338a611edd565b6111a28982611efb565b6111ac6007611f6f565b6111cf604051806060016040528060258152602001613b54602591398a33611f85565b7febb98688741ffa4c7589bf325de30cf7becb63de567842e1ccdb6cb949fdc82c338a60405161120092919061341b565b60405180910390a1505050505050505050565b6000600560008473ffffffffffffffffffffffffffffffffffffffff1673ffffffffffffffffffffffffffffffffffffffff16815260200190815260200160002060008373ffffffffffffffffffffffffffffffffffffffff1673ffffffffffffffffffffffffffffffffffffffff16815260200190815260200160002060009054906101000a900460ff16905092915050565b600081600001549050919050565b61134b816040516024016112c9919061345f565b6040516020818303038152906040527f41304fac000000000000000000000000000000000000000000000000000000007bffffffffffffffffffffffffffffffffffffffffffffffffffffffff19166020820180517bffffffffffffffffffffffffffffffffffffffffffffffffffffffff8381831617835250505050612024565b50565b6113e48160405160240161136291906136df565b6040516020818303038152906040527ff5b1bba9000000000000000000000000000000000000000000000000000000007bffffffffffffffffffffffffffffffffffffffffffffffffffffffff19166020820180517bffffffffffffffffffffffffffffffffffffffffffffffffffffffff8381831617835250505050612024565b50565b60007f01ffc9a7000000000000000000000000000000000000000000000000000000007bffffffffffffffffffffffffffffffffffffffffffffffffffffffff1916827bffffffffffffffffffffffffffffffffffffffffffffffffffffffff1916149050919050565b60008073ffffffffffffffffffffffffffffffffffffffff166002600084815260200190815260200160002060009054906101000a900473ffffffffffffffffffffffffffffffffffffffff1673ffffffffffffffffffffffffffffffffffffffff1614159050919050565b600033905090565b816004600083815260200190815260200160002060006101000a81548173ffffffffffffffffffffffffffffffffffffffff021916908373ffffffffffffffffffffffffffffffffffffffff160217905550808273ffffffffffffffffffffffffffffffffffffffff16611538836109c3565b73ffffffffffffffffffffffffffffffffffffffff167f8c5be1e5ebec7d5bd14f71427d1e84f3dd0314c0f7b2291e5b200ac8c7c3b92560405160405180910390a45050565b600061158982611451565b6115c8576040517f08c379a00000000000000000000000000000000000000000000000000000000081526004016115bf9061353f565b60405180910390fd5b60006115d3836109c3565b90508073ffffffffffffffffffffffffffffffffffffffff168473ffffffffffffffffffffffffffffffffffffffff16148061164257508373ffffffffffffffffffffffffffffffffffffffff1661162a8461056a565b73ffffffffffffffffffffffffffffffffffffffff16145b8061165357506116528185611213565b5b91505092915050565b8273ffffffffffffffffffffffffffffffffffffffff1661167c826109c3565b73ffffffffffffffffffffffffffffffffffffffff16146116d2576040517f08c379a00000000000000000000000000000000000000000000000000000000081526004016116c99061365f565b60405180910390fd5b600073ffffffffffffffffffffffffffffffffffffffff168273ffffffffffffffffffffffffffffffffffffffff161415611742576040517f08c379a0000000000000000000000000000000000000000000000000000000008152600401611739906134ff565b60405180910390fd5b61174d83838361204d565b6117586000826114c5565b6001600360008573ffffffffffffffffffffffffffffffffffffffff1673ffffffffffffffffffffffffffffffffffffffff16815260200190815260200160002060008282546117a89190613894565b925050819055506001600360008473ffffffffffffffffffffffffffffffffffffffff1673ffffffffffffffffffffffffffffffffffffffff16815260200190815260200160002060008282546117ff91906137b3565b92505081905550816002600083815260200190815260200160002060006101000a81548173ffffffffffffffffffffffffffffffffffffffff021916908373ffffffffffffffffffffffffffffffffffffffff160217905550808273ffffffffffffffffffffffffffffffffffffffff168473ffffffffffffffffffffffffffffffffffffffff167fddf252ad1be2c89b69c2b068fc378daa952ba7f163c4a11628f55a4df523b3ef60405160405180910390a4505050565b60606000821415611900576040518060400160405280600181526020017f30000000000000000000000000000000000000000000000000000000000000008152509050611a60565b600082905060005b6000821461193257808061191b906139b0565b915050600a8261192b9190613809565b9150611908565b60008167ffffffffffffffff811115611974577f4e487b7100000000000000000000000000000000000000000000000000000000600052604160045260246000fd5b6040519080825280601f01601f1916602001820160405280156119a65781602001600182028036833780820191505090505b5090505b60008514611a59576001826119bf9190613894565b9150600a856119ce91906139f9565b60306119da91906137b3565b60f81b818381518110611a16577f4e487b7100000000000000000000000000000000000000000000000000000000600052603260045260246000fd5b60200101907effffffffffffffffffffffffffffffffffffffffffffffffffffffffffffff1916908160001a905350600a85611a529190613809565b94506119aa565b8093505050505b919050565b600081604051602001611a789190613210565b6040516020818303038152906040528051906020012060001c9050919050565b8173ffffffffffffffffffffffffffffffffffffffff168373ffffffffffffffffffffffffffffffffffffffff161415611b07576040517f08c379a0000000000000000000000000000000000000000000000000000000008152600401611afe9061351f565b60405180910390fd5b80600560008573ffffffffffffffffffffffffffffffffffffffff1673ffffffffffffffffffffffffffffffffffffffff16815260200190815260200160002060008473ffffffffffffffffffffffffffffffffffffffff1673ffffffffffffffffffffffffffffffffffffffff16815260200190815260200160002060006101000a81548160ff0219169083151502179055508173ffffffffffffffffffffffffffffffffffffffff168373ffffffffffffffffffffffffffffffffffffffff167f17307eab39ab6107e8899845ad3d59bd9653f200f220920489ca2b5937696c3183604051611bf89190613444565b60405180910390a3505050565b611c1084848461165c565b611c1c84848484612052565b611c5b576040517f08c379a0000000000000000000000000000000000000000000000000000000008152600401611c52906134bf565b60405180910390fd5b50505050565b606060405180602001604052806000815250905090565b6060611c8382611451565b611cc2576040517f08c379a0000000000000000000000000000000000000000000000000000000008152600401611cb99061367f565b60405180910390fd5b6000611ccc611c61565b90506000815111611cec5760405180602001604052806000815250611d17565b80611cf6846118b8565b604051602001611d07929190613227565b6040516020818303038152906040525b915050919050565b60606000825190506000811415611d485760405180602001604052806000815250915050611ed8565b60006003600283611d5991906137b3565b611d639190613809565b6004611d6f919061383a565b90506000602082611d8091906137b3565b67ffffffffffffffff811115611dbf577f4e487b7100000000000000000000000000000000000000000000000000000000600052604160045260246000fd5b6040519080825280601f01601f191660200182016040528015611df15781602001600182028036833780820191505090505b5090506000604051806060016040528060408152602001613b79604091399050600181016020830160005b86811015611e955760038101905062ffffff818a015116603f8160121c168401518060081b905060ff603f83600c1c1686015116810190508060081b905060ff603f8360061c1686015116810190508060081b905060ff603f831686015116810190508060e01b90508084526004840193505050611e1c565b506003860660018114611eaf5760028114611ebf57611eca565b613d3d60f01b6002830352611eca565b603d60f81b60018303525b508484525050819450505050505b919050565b611ef78282604051806020016040528060008152506121e9565b5050565b611f0482611451565b611f43576040517f08c379a0000000000000000000000000000000000000000000000000000000008152600401611f3a906135bf565b60405180910390fd5b80600660008481526020019081526020016000209080519060200190611f6a929190612425565b505050565b6001816000016000828254019250508190555050565b61201f838383604051602401611f9d93929190613481565b6040516020818303038152906040527fe3849f79000000000000000000000000000000000000000000000000000000007bffffffffffffffffffffffffffffffffffffffffffffffffffffffff19166020820180517bffffffffffffffffffffffffffffffffffffffffffffffffffffffff8381831617835250505050612024565b505050565b60008151905060006a636f6e736f6c652e6c6f679050602083016000808483855afa5050505050565b505050565b60006120738473ffffffffffffffffffffffffffffffffffffffff16612244565b156121dc578373ffffffffffffffffffffffffffffffffffffffff1663150b7a0261209c6114bd565b8786866040518563ffffffff1660e01b81526004016120be94939291906133cf565b602060405180830381600087803b1580156120d857600080fd5b505af192505050801561210957506040513d601f19601f820116820180604052508101906121069190612769565b60015b61218c573d8060008114612139576040519150601f19603f3d011682016040523d82523d6000602084013e61213e565b606091505b50600081511415612184576040517f08c379a000000000000000000000000000000000000000000000000000000000815260040161217b906134bf565b60405180910390fd5b805181602001fd5b63150b7a0260e01b7bffffffffffffffffffffffffffffffffffffffffffffffffffffffff1916817bffffffffffffffffffffffffffffffffffffffffffffffffffffffff1916149150506121e1565b600190505b949350505050565b6121f38383612257565b6122006000848484612052565b61223f576040517f08c379a0000000000000000000000000000000000000000000000000000000008152600401612236906134bf565b60405180910390fd5b505050565b600080823b905060008111915050919050565b600073ffffffffffffffffffffffffffffffffffffffff168273ffffffffffffffffffffffffffffffffffffffff1614156122c7576040517f08c379a00000000000000000000000000000000000000000000000000000000081526004016122be906135df565b60405180910390fd5b6122d081611451565b15612310576040517f08c379a0000000000000000000000000000000000000000000000000000000008152600401612307906134df565b60405180910390fd5b61231c6000838361204d565b6001600360008473ffffffffffffffffffffffffffffffffffffffff1673ffffffffffffffffffffffffffffffffffffffff168152602001908152602001600020600082825461236c91906137b3565b92505081905550816002600083815260200190815260200160002060006101000a81548173ffffffffffffffffffffffffffffffffffffffff021916908373ffffffffffffffffffffffffffffffffffffffff160217905550808273ffffffffffffffffffffffffffffffffffffffff16600073ffffffffffffffffffffffffffffffffffffffff167fddf252ad1be2c89b69c2b068fc378daa952ba7f163c4a11628f55a4df523b3ef60405160405180910390a45050565b8280546124319061397e565b90600052602060002090601f016020900481019282612453576000855561249a565b82601f1061246c57805160ff191683800117855561249a565b8280016001018555821561249a579182015b8281111561249957825182559160200191906001019061247e565b5b5090506124a791906124ab565b5090565b5b808211156124c45760008160009055506001016124ac565b5090565b60006124db6124d68461372b565b6136fa565b9050828152602081018484840111156124f357600080fd5b6124fe84828561393c565b509392505050565b60008135905061251581613af7565b92915050565b60008135905061252a81613b0e565b92915050565b60008135905061253f81613b25565b92915050565b60008151905061255481613b25565b92915050565b600082601f83011261256b57600080fd5b813561257b8482602086016124c8565b91505092915050565b60008135905061259381613b3c565b92915050565b6000602082840312156125ab57600080fd5b60006125b984828501612506565b91505092915050565b600080604083850312156125d557600080fd5b60006125e385828601612506565b92505060206125f485828601612506565b9150509250929050565b60008060006060848603121561261357600080fd5b600061262186828701612506565b935050602061263286828701612506565b925050604061264386828701612584565b9150509250925092565b6000806000806080858703121561266357600080fd5b600061267187828801612506565b945050602061268287828801612506565b935050604061269387828801612584565b925050606085013567ffffffffffffffff8111156126b057600080fd5b6126bc8782880161255a565b91505092959194509250565b600080604083850312156126db57600080fd5b60006126e985828601612506565b92505060206126fa8582860161251b565b9150509250929050565b6000806040838503121561271757600080fd5b600061272585828601612506565b925050602061273685828601612584565b9150509250929050565b60006020828403121561275257600080fd5b600061276084828501612530565b91505092915050565b60006020828403121561277b57600080fd5b600061278984828501612545565b91505092915050565b6000602082840312156127a457600080fd5b60006127b284828501612584565b91505092915050565b6127c4816138c8565b82525050565b6127d3816138da565b82525050565b60006127e482613770565b6127ee8185613786565b93506127fe81856020860161394b565b61280781613ae6565b840191505092915050565b600061281d8261377b565b6128278185613797565b935061283781856020860161394b565b61284081613ae6565b840191505092915050565b60006128568261377b565b61286081856137a8565b935061287081856020860161394b565b80840191505092915050565b600081546128898161397e565b61289381866137a8565b945060018216600081146128ae57600181146128bf576128f2565b60ff198316865281860193506128f2565b6128c88561375b565b60005b838110156128ea578154818901526001820191506020810190506128cb565b838801955050505b50505092915050565b6000612908603283613797565b91507f4552433732313a207472616e7366657220746f206e6f6e20455243373231526560008301527f63656976657220696d706c656d656e74657200000000000000000000000000006020830152604082019050919050565b600061296e601c83613797565b91507f4552433732313a20746f6b656e20616c7265616479206d696e746564000000006000830152602082019050919050565b60006129ae600a836137a8565b91507f54484952445f574f5244000000000000000000000000000000000000000000006000830152600a82019050919050565b60006129ee602483613797565b91507f4552433732313a207472616e7366657220746f20746865207a65726f2061646460008301527f72657373000000000000000000000000000000000000000000000000000000006020830152604082019050919050565b6000612a54601983613797565b91507f4552433732313a20617070726f766520746f2063616c6c6572000000000000006000830152602082019050919050565b6000612a946063836137a8565b91507f222c20226465736372697074696f6e223a20224120686967686c79206163636c60008301527f61696d656420636f6c6c656374696f6e206f6620737175617265732e222c202260208301527f696d616765223a2022646174613a696d6167652f7376672b786d6c3b6261736560408301527f36342c00000000000000000000000000000000000000000000000000000000006060830152606382019050919050565b6000612b46600b836137a8565b91507f5345434f4e445f574f52440000000000000000000000000000000000000000006000830152600b82019050919050565b6000612b86602c83613797565b91507f4552433732313a206f70657261746f7220717565727920666f72206e6f6e657860008301527f697374656e7420746f6b656e00000000000000000000000000000000000000006020830152604082019050919050565b6000612bec600d836137a8565b91507f3c2f746578743e3c2f7376673e000000000000000000000000000000000000006000830152600d82019050919050565b6000612c2c603883613797565b91507f4552433732313a20617070726f76652063616c6c6572206973206e6f74206f7760008301527f6e6572206e6f7220617070726f76656420666f7220616c6c00000000000000006020830152604082019050919050565b6000612c92602a83613797565b91507f4552433732313a2062616c616e636520717565727920666f7220746865207a6560008301527f726f2061646472657373000000000000000000000000000000000000000000006020830152604082019050919050565b6000612cf8602983613797565b91507f4552433732313a206f776e657220717565727920666f72206e6f6e657869737460008301527f656e7420746f6b656e00000000000000000000000000000000000000000000006020830152604082019050919050565b6000612d5e602e83613797565b91507f45524337323155524953746f726167653a2055524920736574206f66206e6f6e60008301527f6578697374656e7420746f6b656e0000000000000000000000000000000000006020830152604082019050919050565b6000612dc46002836137a8565b91507f227d0000000000000000000000000000000000000000000000000000000000006000830152600282019050919050565b6000612e04602083613797565b91507f4552433732313a206d696e7420746f20746865207a65726f20616464726573736000830152602082019050919050565b6000612e44603183613797565b91507f45524337323155524953746f726167653a2055524920717565727920666f722060008301527f6e6f6e6578697374656e7420746f6b656e0000000000000000000000000000006020830152604082019050919050565b6000612eaa602783613797565b91507f4d6178696d756d204e756d626572206f66204e4654732068617665206265656e60008301527f206d696e746564000000000000000000000000000000000000000000000000006020830152604082019050919050565b6000612f10602c83613797565b91507f4552433732313a20617070726f76656420717565727920666f72206e6f6e657860008301527f697374656e7420746f6b656e00000000000000000000000000000000000000006020830152604082019050919050565b6000612f76602983613797565b91507f4552433732313a207472616e73666572206f6620746f6b656e2074686174206960008301527f73206e6f74206f776e00000000000000000000000000000000000000000000006020830152604082019050919050565b6000612fdc602f83613797565b91507f4552433732314d657461646174613a2055524920717565727920666f72206e6f60008301527f6e6578697374656e7420746f6b656e00000000000000000000000000000000006020830152604082019050919050565b6000613042600a836137a8565b91507f7b226e616d65223a2022000000000000000000000000000000000000000000006000830152600a82019050919050565b6000613082602183613797565b91507f4552433732313a20617070726f76616c20746f2063757272656e74206f776e6560008301527f72000000000000000000000000000000000000000000000000000000000000006020830152604082019050919050565b60006130e8600a836137a8565b91507f46495253545f574f5244000000000000000000000000000000000000000000006000830152600a82019050919050565b6000613128601d836137a8565b91507f646174613a6170706c69636174696f6e2f6a736f6e3b6261736536342c0000006000830152601d82019050919050565b6000613168603183613797565b91507f4552433732313a207472616e736665722063616c6c6572206973206e6f74206f60008301527f776e6572206e6f7220617070726f7665640000000000000000000000000000006020830152604082019050919050565b60006131ce6005836137a8565b91507f434f4c4f520000000000000000000000000000000000000000000000000000006000830152600582019050919050565b61320a81613932565b82525050565b600061321c828461284b565b915081905092915050565b6000613233828561284b565b915061323f828461284b565b91508190509392505050565b6000613257828661284b565b9150613263828561284b565b915061326f828461284b565b9150819050949350505050565b6000613288828761287c565b9150613294828661284b565b91506132a0828561287c565b91506132ac828461284b565b91506132b782612bdf565b915081905095945050505050565b60006132d0826129a1565b91506132dc828461284b565b915081905092915050565b60006132f282612b39565b91506132fe828461284b565b915081905092915050565b600061331482613035565b9150613320828561284b565b915061332b82612a87565b9150613337828461284b565b915061334282612db7565b91508190509392505050565b6000613359826130db565b9150613365828461284b565b915081905092915050565b600061337b8261311b565b9150613387828461284b565b915081905092915050565b600061339d826131c1565b91506133a9828461284b565b915081905092915050565b60006020820190506133c960008301846127bb565b92915050565b60006080820190506133e460008301876127bb565b6133f160208301866127bb565b6133fe6040830185613201565b818103606083015261341081846127d9565b905095945050505050565b600060408201905061343060008301856127bb565b61343d6020830184613201565b9392505050565b600060208201905061345960008301846127ca565b92915050565b600060208201905081810360008301526134798184612812565b905092915050565b6000606082019050818103600083015261349b8186612812565b90506134aa6020830185613201565b6134b760408301846127bb565b949350505050565b600060208201905081810360008301526134d8816128fb565b9050919050565b600060208201905081810360008301526134f881612961565b9050919050565b60006020820190508181036000830152613518816129e1565b9050919050565b6000602082019050818103600083015261353881612a47565b9050919050565b6000602082019050818103600083015261355881612b79565b9050919050565b6000602082019050818103600083015261357881612c1f565b9050919050565b6000602082019050818103600083015261359881612c85565b9050919050565b600060208201905081810360008301526135b881612ceb565b9050919050565b600060208201905081810360008301526135d881612d51565b9050919050565b600060208201905081810360008301526135f881612df7565b9050919050565b6000602082019050818103600083015261361881612e37565b9050919050565b6000602082019050818103600083015261363881612e9d565b9050919050565b6000602082019050818103600083015261365881612f03565b9050919050565b6000602082019050818103600083015261367881612f69565b9050919050565b6000602082019050818103600083015261369881612fcf565b9050919050565b600060208201905081810360008301526136b881613075565b9050919050565b600060208201905081810360008301526136d88161315b565b9050919050565b60006020820190506136f46000830184613201565b92915050565b6000604051905081810181811067ffffffffffffffff8211171561372157613720613ab7565b5b8060405250919050565b600067ffffffffffffffff82111561374657613745613ab7565b5b601f19601f8301169050602081019050919050565b60008190508160005260206000209050919050565b600081519050919050565b600081519050919050565b600082825260208201905092915050565b600082825260208201905092915050565b600081905092915050565b60006137be82613932565b91506137c983613932565b9250827fffffffffffffffffffffffffffffffffffffffffffffffffffffffffffffffff038211156137fe576137fd613a2a565b5b828201905092915050565b600061381482613932565b915061381f83613932565b92508261382f5761382e613a59565b5b828204905092915050565b600061384582613932565b915061385083613932565b9250817fffffffffffffffffffffffffffffffffffffffffffffffffffffffffffffffff048311821515161561388957613888613a2a565b5b828202905092915050565b600061389f82613932565b91506138aa83613932565b9250828210156138bd576138bc613a2a565b5b828203905092915050565b60006138d382613912565b9050919050565b60008115159050919050565b60007fffffffff0000000000000000000000000000000000000000000000000000000082169050919050565b600073ffffffffffffffffffffffffffffffffffffffff82169050919050565b6000819050919050565b82818337600083830152505050565b60005b8381101561396957808201518184015260208101905061394e565b83811115613978576000848401525b50505050565b6000600282049050600182168061399657607f821691505b602082108114156139aa576139a9613a88565b5b50919050565b60006139bb82613932565b91507fffffffffffffffffffffffffffffffffffffffffffffffffffffffffffffffff8214156139ee576139ed613a2a565b5b600182019050919050565b6000613a0482613932565b9150613a0f83613932565b925082613a1f57613a1e613a59565b5b828206905092915050565b7f4e487b7100000000000000000000000000000000000000000000000000000000600052601160045260246000fd5b7f4e487b7100000000000000000000000000000000000000000000000000000000600052601260045260246000fd5b7f4e487b7100000000000000000000000000000000000000000000000000000000600052602260045260246000fd5b7f4e487b7100000000000000000000000000000000000000000000000000000000600052604160045260246000fd5b6000601f19601f8301169050919050565b613b00816138c8565b8114613b0b57600080fd5b50565b613b17816138da565b8114613b2257600080fd5b50565b613b2e816138e6565b8114613b3957600080fd5b50565b613b4581613932565b8114613b5057600080fd5b5056fe416e204e465420772f20494420257320686173206265656e206d696e74656420746f2025734142434445464748494a4b4c4d4e4f505152535455565758595a6162636465666768696a6b6c6d6e6f707172737475767778797a303132333435363738392b2fa2646970667358221220b56ec682aedce2994bacb9020e3b107dadeedcdef24f950e58c5e58d31f794a064736f6c634300080000333c73766720786d6c6e733d27687474703a2f2f7777772e77332e6f72672f323030302f73766727207072657365727665417370656374526174696f3d27784d696e594d696e206d656574272076696577426f783d273020302033353020333530273e3c7374796c653e2e62617365207b2066696c6c3a2077686974653b20666f6e742d66616d696c793a2073657269663b20666f6e742d73697a653a20323470783b207d3c2f7374796c653e3c726563742077696474683d273130302527206865696768743d2731303025272066696c6c3d27272f3e3c7465787420783d273530252720793d273530252720636c6173733d27626173652720646f6d696e616e742d626173656c696e653d276d6964646c652720746578742d616e63686f723d276d6964646c65273e",
  "linkReferences": {},
  "deployedLinkReferences": {}
}